{
  "contractName": "ExampleSearchable",
  "abi": [
    {
      "constant": true,
      "inputs": [],
      "name": "owner",
      "outputs": [
        {
          "name": "",
          "type": "address"
        }
      ],
      "payable": false,
      "stateMutability": "view",
      "type": "function"
    },
    {
      "constant": false,
      "inputs": [
        {
          "name": "searchword",
          "type": "bytes32"
        },
        {
          "name": "message",
          "type": "bytes32"
        }
      ],
      "name": "addSearchwordAndMessage",
      "outputs": [],
      "payable": false,
      "stateMutability": "nonpayable",
      "type": "function"
    },
    {
      "constant": false,
      "inputs": [
        {
          "name": "newOwner",
          "type": "address"
        }
      ],
      "name": "transferOwnership",
      "outputs": [],
      "payable": false,
      "stateMutability": "nonpayable",
      "type": "function"
    },
    {
      "inputs": [
        {
          "name": "searchword",
          "type": "bytes32"
        },
        {
          "name": "message",
          "type": "bytes32"
        }
      ],
      "payable": false,
      "stateMutability": "nonpayable",
      "type": "constructor"
    },
    {
      "anonymous": false,
      "inputs": [
        {
          "indexed": true,
          "name": "previousOwner",
          "type": "address"
        },
        {
          "indexed": true,
          "name": "newOwner",
          "type": "address"
        }
      ],
      "name": "OwnershipTransferred",
      "type": "event"
    }
  ],
  "bytecode": "0x6060604052341561000f57600080fd5b6040516040806104b983398101604052808051906020019091908051906020019091905050336000806101000a81548173ffffffffffffffffffffffffffffffffffffffff021916908373ffffffffffffffffffffffffffffffffffffffff160217905550610091828261009864010000000002610143176401000000009004565b505061013f565b6000809054906101000a900473ffffffffffffffffffffffffffffffffffffffff1673ffffffffffffffffffffffffffffffffffffffff163373ffffffffffffffffffffffffffffffffffffffff161415156100f357600080fd5b81600019167f6d65737361676500000000000000000000000000000000000000000000000000600019168260405180826000191660001916815260200191505060405180910390a25050565b61036b8061014e6000396000f300606060405260043610610057576000357c0100000000000000000000000000000000000000000000000000000000900463ffffffff1680638da5cb5b1461005c578063d91d8bab146100b1578063f2fde38b146100e5575b600080fd5b341561006757600080fd5b61006f61011e565b604051808273ffffffffffffffffffffffffffffffffffffffff1673ffffffffffffffffffffffffffffffffffffffff16815260200191505060405180910390f35b34156100bc57600080fd5b6100e360048080356000191690602001909190803560001916906020019091905050610143565b005b34156100f057600080fd5b61011c600480803573ffffffffffffffffffffffffffffffffffffffff169060200190919050506101ea565b005b6000809054906101000a900473ffffffffffffffffffffffffffffffffffffffff1681565b6000809054906101000a900473ffffffffffffffffffffffffffffffffffffffff1673ffffffffffffffffffffffffffffffffffffffff163373ffffffffffffffffffffffffffffffffffffffff1614151561019e57600080fd5b81600019167f6d65737361676500000000000000000000000000000000000000000000000000600019168260405180826000191660001916815260200191505060405180910390a25050565b6000809054906101000a900473ffffffffffffffffffffffffffffffffffffffff1673ffffffffffffffffffffffffffffffffffffffff163373ffffffffffffffffffffffffffffffffffffffff1614151561024557600080fd5b600073ffffffffffffffffffffffffffffffffffffffff168173ffffffffffffffffffffffffffffffffffffffff161415151561028157600080fd5b8073ffffffffffffffffffffffffffffffffffffffff166000809054906101000a900473ffffffffffffffffffffffffffffffffffffffff1673ffffffffffffffffffffffffffffffffffffffff167f8be0079c531659141344cd1fd0a4f28419497f9722a3daafe3b4186f6b6457e060405160405180910390a3806000806101000a81548173ffffffffffffffffffffffffffffffffffffffff021916908373ffffffffffffffffffffffffffffffffffffffff160217905550505600a165627a7a723058203d9d4a9938d3e803d6788d3e39c68190d2171ddee1e1027e3de9378372a23ff80029",
  "source": "pragma solidity ^0.4.18;\n\nimport \"./Searchable.sol\";\n\ncontract ExampleSearchable is Searchable {\n\n  function ExampleSearchable(bytes32 searchword, bytes32 message) public {\n    addSearchwordAndMessage(searchword, message);\n  }\n}\n",
  "sourcePath": "/Users/jasonemberley/eth-denver/search/truffle-spike2/contracts/ExampleSearchable.sol",
  "compiler": {
    "name": "solc",
    "version": "0.4.19+commit.c4cbbb05.Emscripten.clang"
  },
  "schemaVersion": "1.0.1",
  "updatedAt": "2018-02-20T05:45:40.952Z"
}