{
  "contractName": "Searchable",
  "abi": [
    {
      "constant": true,
      "inputs": [],
      "name": "owner",
      "outputs": [
        {
          "name": "",
          "type": "address"
        }
      ],
      "payable": false,
      "stateMutability": "view",
      "type": "function"
    },
    {
      "constant": false,
      "inputs": [
        {
          "name": "newOwner",
          "type": "address"
        }
      ],
      "name": "transferOwnership",
      "outputs": [],
      "payable": false,
      "stateMutability": "nonpayable",
      "type": "function"
    },
    {
      "anonymous": false,
      "inputs": [
        {
          "indexed": true,
          "name": "previousOwner",
          "type": "address"
        },
        {
          "indexed": true,
          "name": "newOwner",
          "type": "address"
        }
      ],
      "name": "OwnershipTransferred",
      "type": "event"
    },
    {
      "constant": false,
      "inputs": [
        {
          "name": "searchword",
          "type": "bytes32"
        },
        {
          "name": "message",
          "type": "bytes32"
        }
      ],
      "name": "addSearchwordAndMessage",
      "outputs": [],
      "payable": false,
      "stateMutability": "nonpayable",
      "type": "function"
    }
  ],
  "bytecode": "0x6060604052336000806101000a81548173ffffffffffffffffffffffffffffffffffffffff021916908373ffffffffffffffffffffffffffffffffffffffff16021790555061036b806100536000396000f300606060405260043610610057576000357c0100000000000000000000000000000000000000000000000000000000900463ffffffff1680638da5cb5b1461005c578063d91d8bab146100b1578063f2fde38b146100e5575b600080fd5b341561006757600080fd5b61006f61011e565b604051808273ffffffffffffffffffffffffffffffffffffffff1673ffffffffffffffffffffffffffffffffffffffff16815260200191505060405180910390f35b34156100bc57600080fd5b6100e360048080356000191690602001909190803560001916906020019091905050610143565b005b34156100f057600080fd5b61011c600480803573ffffffffffffffffffffffffffffffffffffffff169060200190919050506101ea565b005b6000809054906101000a900473ffffffffffffffffffffffffffffffffffffffff1681565b6000809054906101000a900473ffffffffffffffffffffffffffffffffffffffff1673ffffffffffffffffffffffffffffffffffffffff163373ffffffffffffffffffffffffffffffffffffffff1614151561019e57600080fd5b81600019167f6d65737361676500000000000000000000000000000000000000000000000000600019168260405180826000191660001916815260200191505060405180910390a25050565b6000809054906101000a900473ffffffffffffffffffffffffffffffffffffffff1673ffffffffffffffffffffffffffffffffffffffff163373ffffffffffffffffffffffffffffffffffffffff1614151561024557600080fd5b600073ffffffffffffffffffffffffffffffffffffffff168173ffffffffffffffffffffffffffffffffffffffff161415151561028157600080fd5b8073ffffffffffffffffffffffffffffffffffffffff166000809054906101000a900473ffffffffffffffffffffffffffffffffffffffff1673ffffffffffffffffffffffffffffffffffffffff167f8be0079c531659141344cd1fd0a4f28419497f9722a3daafe3b4186f6b6457e060405160405180910390a3806000806101000a81548173ffffffffffffffffffffffffffffffffffffffff021916908373ffffffffffffffffffffffffffffffffffffffff160217905550505600a165627a7a72305820b96d5b95ff53f9c774cd14cb5fcc7d5afcc6fb8853768eb14150f8d36ea9ccf70029",
  "source": "pragma solidity ^0.4.18;\n\n/* import \"./Ownable.sol\"; */\nimport \"zeppelin-solidity/contracts/ownership/Ownable.sol\";\n\n\n/**\n * @title Searchable\n * @dev Allows the owner to associate searchwords and\n *         messages with their contract.\n */\ncontract Searchable is Ownable {\n\n  /**\n    * @dev Allows the owner to associate a searchword and\n    *         message with their contract.\n    * @param searchword A word which can be searched for.\n    *         Will be associated with this contract and message.\n    * @param message A message or description to be associated\n    *         with this contract and searchword.\n    */\n  function addSearchwordAndMessage(\n    bytes32 searchword,\n    bytes32 message\n  )\n    onlyOwner public\n  {\n    log2(message, bytes32(\"message\"), searchword);\n  }\n}\n",
  "sourcePath": "/Users/jasonemberley/eth-denver/search/truffle-spike2/contracts/Searchable.sol",
  "compiler": {
    "name": "solc",
    "version": "0.4.19+commit.c4cbbb05.Emscripten.clang"
  },
  "schemaVersion": "1.0.1",
  "updatedAt": "2018-02-20T05:45:40.951Z"
}