{
  "contractName": "Searchable",
  "abi": [
    {
      "constant": true,
      "inputs": [],
      "name": "owner",
      "outputs": [
        {
          "name": "",
          "type": "address"
        }
      ],
      "payable": false,
      "stateMutability": "view",
      "type": "function"
    },
    {
      "constant": false,
      "inputs": [
        {
          "name": "newOwner",
          "type": "address"
        }
      ],
      "name": "transferOwnership",
      "outputs": [],
      "payable": false,
      "stateMutability": "nonpayable",
      "type": "function"
    },
    {
      "anonymous": false,
      "inputs": [
        {
          "indexed": true,
          "name": "term",
          "type": "string"
        },
        {
          "indexed": false,
          "name": "message",
          "type": "string"
        }
      ],
      "name": "AddSearchTerm",
      "type": "event"
    },
    {
      "anonymous": false,
      "inputs": [
        {
          "indexed": true,
          "name": "term",
          "type": "string"
        }
      ],
      "name": "RemoveSearchTerm",
      "type": "event"
    },
    {
      "anonymous": false,
      "inputs": [
        {
          "indexed": true,
          "name": "previousOwner",
          "type": "address"
        },
        {
          "indexed": true,
          "name": "newOwner",
          "type": "address"
        }
      ],
      "name": "OwnershipTransferred",
      "type": "event"
    },
    {
      "constant": false,
      "inputs": [
        {
          "name": "term",
          "type": "string"
        },
        {
          "name": "message",
          "type": "string"
        }
      ],
      "name": "addSearchTerm",
      "outputs": [],
      "payable": false,
      "stateMutability": "nonpayable",
      "type": "function"
    },
    {
      "constant": false,
      "inputs": [
        {
          "name": "term",
          "type": "string"
        }
      ],
      "name": "removeSearchTerm",
      "outputs": [],
      "payable": false,
      "stateMutability": "nonpayable",
      "type": "function"
    }
  ],
  "bytecode": "0x6060604052336000806101000a81548173ffffffffffffffffffffffffffffffffffffffff021916908373ffffffffffffffffffffffffffffffffffffffff1602179055506105e3806100536000396000f300606060405260043610610062576000357c0100000000000000000000000000000000000000000000000000000000900463ffffffff1680630693b4f81461006757806329046fa9146100c45780638da5cb5b14610164578063f2fde38b146101b9575b600080fd5b341561007257600080fd5b6100c2600480803590602001908201803590602001908080601f016020809104026020016040519081016040528093929190818152602001838380828437820191505050505050919050506101f2565b005b34156100cf57600080fd5b610162600480803590602001908201803590602001908080601f0160208091040260200160405190810160405280939291908181526020018383808284378201915050505050509190803590602001908201803590602001908080601f016020809104026020016040519081016040528093929190818152602001838380828437820191505050505050919050506102df565b005b341561016f57600080fd5b61017761043d565b604051808273ffffffffffffffffffffffffffffffffffffffff1673ffffffffffffffffffffffffffffffffffffffff16815260200191505060405180910390f35b34156101c457600080fd5b6101f0600480803573ffffffffffffffffffffffffffffffffffffffff16906020019091905050610462565b005b6000809054906101000a900473ffffffffffffffffffffffffffffffffffffffff1673ffffffffffffffffffffffffffffffffffffffff163373ffffffffffffffffffffffffffffffffffffffff1614151561024d57600080fd5b806040518082805190602001908083835b602083101515610283578051825260208201915060208101905060208303925061025e565b6001836020036101000a03801982511681845116808217855250505050505090500191505060405180910390207fed904944514c6933ff206bad3c78e76bc1b739686bd146f73ea7da556e3eaf1f60405160405180910390a250565b6000809054906101000a900473ffffffffffffffffffffffffffffffffffffffff1673ffffffffffffffffffffffffffffffffffffffff163373ffffffffffffffffffffffffffffffffffffffff1614151561033a57600080fd5b816040518082805190602001908083835b602083101515610370578051825260208201915060208101905060208303925061034b565b6001836020036101000a03801982511681845116808217855250505050505090500191505060405180910390207f38ebc58dda5d704d8e15ca04f1aa8cc8b6e6f9395bcc1098b12c39dc2a8de1f3826040518080602001828103825283818151815260200191508051906020019080838360005b838110156103ff5780820151818401526020810190506103e4565b50505050905090810190601f16801561042c5780820380516001836020036101000a031916815260200191505b509250505060405180910390a25050565b6000809054906101000a900473ffffffffffffffffffffffffffffffffffffffff1681565b6000809054906101000a900473ffffffffffffffffffffffffffffffffffffffff1673ffffffffffffffffffffffffffffffffffffffff163373ffffffffffffffffffffffffffffffffffffffff161415156104bd57600080fd5b600073ffffffffffffffffffffffffffffffffffffffff168173ffffffffffffffffffffffffffffffffffffffff16141515156104f957600080fd5b8073ffffffffffffffffffffffffffffffffffffffff166000809054906101000a900473ffffffffffffffffffffffffffffffffffffffff1673ffffffffffffffffffffffffffffffffffffffff167f8be0079c531659141344cd1fd0a4f28419497f9722a3daafe3b4186f6b6457e060405160405180910390a3806000806101000a81548173ffffffffffffffffffffffffffffffffffffffff021916908373ffffffffffffffffffffffffffffffffffffffff160217905550505600a165627a7a72305820b1ad1f7680ea0ec190143c5459e39ff96139d8269d19163b7881ab71592b62af0029",
  "source": "pragma solidity ^0.4.18;\n\n\nimport \"zeppelin-solidity/contracts/ownership/Ownable.sol\";\n\n\n/**\n * @title Searchable\n * @dev Allows a contract owner to associate search terms with their contract.\n */\ncontract Searchable is Ownable {\n\n  event AddSearchTerm(string indexed term, string message);\n  event RemoveSearchTerm(string indexed term);\n\n  /**\n   * @dev Allows contract owner to add a search term.\n   * @param term The search term to be added.\n   */\n  function addSearchTerm (string term, string message) public onlyOwner {\n    AddSearchTerm(term, message);\n  }\n\n  /**\n   * @dev Allows contract owner to remove a search term.\n   * @param term The search term to be removed.\n   */\n  function removeSearchTerm (string term) public onlyOwner {\n    RemoveSearchTerm(term);\n  }\n}\n",
  "sourcePath": "/Users/jasonemberley/eth-denver/search/truffle-spike2/contracts/Searchable.sol",
  "compiler": {
    "name": "solc",
    "version": "0.4.19+commit.c4cbbb05.Emscripten.clang"
  },
  "schemaVersion": "1.0.1",
  "updatedAt": "2018-02-22T08:44:17.501Z"
}