{
  "contractName": "Searchable",
  "abi": [
    {
      "constant": true,
      "inputs": [],
      "name": "owner",
      "outputs": [
        {
          "name": "",
          "type": "address"
        }
      ],
      "payable": false,
      "stateMutability": "view",
      "type": "function"
    },
    {
      "constant": false,
      "inputs": [
        {
          "name": "newOwner",
          "type": "address"
        }
      ],
      "name": "transferOwnership",
      "outputs": [],
      "payable": false,
      "stateMutability": "nonpayable",
      "type": "function"
    },
    {
      "anonymous": false,
      "inputs": [
        {
          "indexed": true,
          "name": "term",
          "type": "string"
        }
      ],
      "name": "AddSearchTerm",
      "type": "event"
    },
    {
      "anonymous": false,
      "inputs": [
        {
          "indexed": true,
          "name": "term",
          "type": "string"
        }
      ],
      "name": "RemoveSearchTerm",
      "type": "event"
    },
    {
      "anonymous": false,
      "inputs": [
        {
          "indexed": true,
          "name": "previousOwner",
          "type": "address"
        },
        {
          "indexed": true,
          "name": "newOwner",
          "type": "address"
        }
      ],
      "name": "OwnershipTransferred",
      "type": "event"
    },
    {
      "constant": false,
      "inputs": [
        {
          "name": "term",
          "type": "string"
        }
      ],
      "name": "addSearchTerm",
      "outputs": [],
      "payable": false,
      "stateMutability": "nonpayable",
      "type": "function"
    },
    {
      "constant": false,
      "inputs": [
        {
          "name": "term",
          "type": "string"
        }
      ],
      "name": "removeSearchTerm",
      "outputs": [],
      "payable": false,
      "stateMutability": "nonpayable",
      "type": "function"
    }
  ],
  "bytecode": "0x6060604052336000806101000a81548173ffffffffffffffffffffffffffffffffffffffff021916908373ffffffffffffffffffffffffffffffffffffffff16021790555061052f806100536000396000f300606060405260043610610062576000357c0100000000000000000000000000000000000000000000000000000000900463ffffffff1680630693b4f8146100675780638da5cb5b146100c4578063b1e69bd414610119578063f2fde38b14610176575b600080fd5b341561007257600080fd5b6100c2600480803590602001908201803590602001908080601f016020809104026020016040519081016040528093929190818152602001838380828437820191505050505050919050506101af565b005b34156100cf57600080fd5b6100d761029c565b604051808273ffffffffffffffffffffffffffffffffffffffff1673ffffffffffffffffffffffffffffffffffffffff16815260200191505060405180910390f35b341561012457600080fd5b610174600480803590602001908201803590602001908080601f016020809104026020016040519081016040528093929190818152602001838380828437820191505050505050919050506102c1565b005b341561018157600080fd5b6101ad600480803573ffffffffffffffffffffffffffffffffffffffff169060200190919050506103ae565b005b6000809054906101000a900473ffffffffffffffffffffffffffffffffffffffff1673ffffffffffffffffffffffffffffffffffffffff163373ffffffffffffffffffffffffffffffffffffffff1614151561020a57600080fd5b806040518082805190602001908083835b602083101515610240578051825260208201915060208101905060208303925061021b565b6001836020036101000a03801982511681845116808217855250505050505090500191505060405180910390207fed904944514c6933ff206bad3c78e76bc1b739686bd146f73ea7da556e3eaf1f60405160405180910390a250565b6000809054906101000a900473ffffffffffffffffffffffffffffffffffffffff1681565b6000809054906101000a900473ffffffffffffffffffffffffffffffffffffffff1673ffffffffffffffffffffffffffffffffffffffff163373ffffffffffffffffffffffffffffffffffffffff1614151561031c57600080fd5b806040518082805190602001908083835b602083101515610352578051825260208201915060208101905060208303925061032d565b6001836020036101000a03801982511681845116808217855250505050505090500191505060405180910390207fb130466b16614e831782d5708cf5dd2f98201c1a2729b1eb3a1176de511a297760405160405180910390a250565b6000809054906101000a900473ffffffffffffffffffffffffffffffffffffffff1673ffffffffffffffffffffffffffffffffffffffff163373ffffffffffffffffffffffffffffffffffffffff1614151561040957600080fd5b600073ffffffffffffffffffffffffffffffffffffffff168173ffffffffffffffffffffffffffffffffffffffff161415151561044557600080fd5b8073ffffffffffffffffffffffffffffffffffffffff166000809054906101000a900473ffffffffffffffffffffffffffffffffffffffff1673ffffffffffffffffffffffffffffffffffffffff167f8be0079c531659141344cd1fd0a4f28419497f9722a3daafe3b4186f6b6457e060405160405180910390a3806000806101000a81548173ffffffffffffffffffffffffffffffffffffffff021916908373ffffffffffffffffffffffffffffffffffffffff160217905550505600a165627a7a723058201b5c02e516d5335852e6908e0f25c6918dfbaf406c1ea62ac6a23d44a2a439230029",
  "source": "pragma solidity ^0.4.18;\n\n\nimport \"zeppelin-solidity/contracts/ownership/Ownable.sol\";\n\n\n/**\n * @title Searchable\n * @dev Allows a contract owner to associate search terms with their contract.\n */\ncontract Searchable is Ownable {\n\n  event AddSearchTerm(string indexed term);\n  event RemoveSearchTerm(string indexed term);\n\n  /**\n   * @dev Allows contract owner to add a search term.\n   * @param term The search term to be added.\n   */\n  function addSearchTerm (string term) public onlyOwner {\n    AddSearchTerm(term);\n  }\n\n  /**\n   * @dev Allows contract owner to remove a search term.\n   * @param term The search term to be removed.\n   */\n  function removeSearchTerm (string term) public onlyOwner {\n    RemoveSearchTerm(term);\n  }\n}\n",
  "sourcePath": "/Users/jasonemberley/eth-denver/search/truffle-spike2/contracts/Searchable.sol",
  "compiler": {
    "name": "solc",
    "version": "0.4.19+commit.c4cbbb05.Emscripten.clang"
  },
  "schemaVersion": "1.0.1",
  "updatedAt": "2018-02-18T13:00:26.123Z"
}